{
	"booldata_type.sol": {
		"local": {
			"abi": [
				{
					"inputs": [
						{
							"internalType": "uint256",
							"name": "a",
							"type": "uint256"
						}
					],
					"name": "check",
					"outputs": [
						{
							"internalType": "bool",
							"name": "",
							"type": "bool"
						}
					],
					"stateMutability": "nonpayable",
					"type": "function"
				},
				{
					"inputs": [],
					"name": "value",
					"outputs": [
						{
							"internalType": "bool",
							"name": "",
							"type": "bool"
						}
					],
					"stateMutability": "view",
					"type": "function"
				}
			],
			"devdoc": {
				"kind": "dev",
				"methods": {},
				"version": 1
			},
			"evm": {
				"assembly": "    /* \"booldata_type.sol\":70:340  contract local... */\n  mstore(0x40, 0x80)\n    /* \"booldata_type.sol\":109:113  true */\n  0x01\n    /* \"booldata_type.sol\":91:113  bool public value=true */\n  0x00\n  dup1\n  0x0100\n  exp\n  dup2\n  sload\n  dup2\n  0xff\n  mul\n  not\n  and\n  swap1\n  dup4\n  iszero\n  iszero\n  mul\n  or\n  swap1\n  sstore\n  pop\n    /* \"booldata_type.sol\":70:340  contract local... */\n  callvalue\n  dup1\n  iszero\n  tag_1\n  jumpi\n  0x00\n  dup1\n  revert\ntag_1:\n  pop\n  dataSize(sub_0)\n  dup1\n  dataOffset(sub_0)\n  0x00\n  codecopy\n  0x00\n  return\nstop\n\nsub_0: assembly {\n        /* \"booldata_type.sol\":70:340  contract local... */\n      mstore(0x40, 0x80)\n      callvalue\n      dup1\n      iszero\n      tag_1\n      jumpi\n      0x00\n      dup1\n      revert\n    tag_1:\n      pop\n      jumpi(tag_2, lt(calldatasize, 0x04))\n      shr(0xe0, calldataload(0x00))\n      dup1\n      0x3fa4f245\n      eq\n      tag_3\n      jumpi\n      dup1\n      0x5f72f450\n      eq\n      tag_4\n      jumpi\n    tag_2:\n      0x00\n      dup1\n      revert\n        /* \"booldata_type.sol\":91:113  bool public value=true */\n    tag_3:\n      tag_5\n      tag_6\n      jump\t// in\n    tag_5:\n      mload(0x40)\n      tag_7\n      swap2\n      swap1\n      tag_8\n      jump\t// in\n    tag_7:\n      mload(0x40)\n      dup1\n      swap2\n      sub\n      swap1\n      return\n        /* \"booldata_type.sol\":120:338  function check(uint a) public returns(bool)... */\n    tag_4:\n      tag_9\n      0x04\n      dup1\n      calldatasize\n      sub\n      dup2\n      add\n      swap1\n      tag_10\n      swap2\n      swap1\n      tag_11\n      jump\t// in\n    tag_10:\n      tag_12\n      jump\t// in\n    tag_9:\n      mload(0x40)\n      tag_13\n      swap2\n      swap1\n      tag_8\n      jump\t// in\n    tag_13:\n      mload(0x40)\n      dup1\n      swap2\n      sub\n      swap1\n      return\n        /* \"booldata_type.sol\":91:113  bool public value=true */\n    tag_6:\n      0x00\n      dup1\n      sload\n      swap1\n      0x0100\n      exp\n      swap1\n      div\n      0xff\n      and\n      dup2\n      jump\t// out\n        /* \"booldata_type.sol\":120:338  function check(uint a) public returns(bool)... */\n    tag_12:\n        /* \"booldata_type.sol\":158:162  bool */\n      0x00\n        /* \"booldata_type.sol\":183:186  100 */\n      0x64\n        /* \"booldata_type.sol\":181:182  a */\n      dup3\n        /* \"booldata_type.sol\":181:186  a>100 */\n      gt\n        /* \"booldata_type.sol\":178:332  if(a>100)... */\n      iszero\n      tag_15\n      jumpi\n        /* \"booldata_type.sol\":216:220  true */\n      0x01\n        /* \"booldata_type.sol\":210:215  value */\n      0x00\n      dup1\n        /* \"booldata_type.sol\":210:220  value=true */\n      0x0100\n      exp\n      dup2\n      sload\n      dup2\n      0xff\n      mul\n      not\n      and\n      swap1\n      dup4\n      iszero\n      iszero\n      mul\n      or\n      swap1\n      sstore\n      pop\n        /* \"booldata_type.sol\":241:246  value */\n      0x00\n      dup1\n      sload\n      swap1\n      0x0100\n      exp\n      swap1\n      div\n      0xff\n      and\n        /* \"booldata_type.sol\":234:246  return value */\n      swap1\n      pop\n      jump(tag_14)\n        /* \"booldata_type.sol\":178:332  if(a>100)... */\n    tag_15:\n        /* \"booldata_type.sol\":290:295  false */\n      0x00\n        /* \"booldata_type.sol\":284:289  value */\n      dup1\n      0x00\n        /* \"booldata_type.sol\":284:295  value=false */\n      0x0100\n      exp\n      dup2\n      sload\n      dup2\n      0xff\n      mul\n      not\n      and\n      swap1\n      dup4\n      iszero\n      iszero\n      mul\n      or\n      swap1\n      sstore\n      pop\n        /* \"booldata_type.sol\":316:321  value */\n      0x00\n      dup1\n      sload\n      swap1\n      0x0100\n      exp\n      swap1\n      div\n      0xff\n      and\n        /* \"booldata_type.sol\":309:321  return value */\n      swap1\n      pop\n        /* \"booldata_type.sol\":120:338  function check(uint a) public returns(bool)... */\n    tag_14:\n      swap2\n      swap1\n      pop\n      jump\t// out\n        /* \"#utility.yul\":7:97   */\n    tag_17:\n        /* \"#utility.yul\":41:48   */\n      0x00\n        /* \"#utility.yul\":84:89   */\n      dup2\n        /* \"#utility.yul\":77:90   */\n      iszero\n        /* \"#utility.yul\":70:91   */\n      iszero\n        /* \"#utility.yul\":59:91   */\n      swap1\n      pop\n        /* \"#utility.yul\":7:97   */\n      swap2\n      swap1\n      pop\n      jump\t// out\n        /* \"#utility.yul\":103:212   */\n    tag_18:\n        /* \"#utility.yul\":184:205   */\n      tag_28\n        /* \"#utility.yul\":199:204   */\n      dup2\n        /* \"#utility.yul\":184:205   */\n      tag_17\n      jump\t// in\n    tag_28:\n        /* \"#utility.yul\":179:182   */\n      dup3\n        /* \"#utility.yul\":172:206   */\n      mstore\n        /* \"#utility.yul\":103:212   */\n      pop\n      pop\n      jump\t// out\n        /* \"#utility.yul\":218:428   */\n    tag_8:\n        /* \"#utility.yul\":305:309   */\n      0x00\n        /* \"#utility.yul\":343:345   */\n      0x20\n        /* \"#utility.yul\":332:341   */\n      dup3\n        /* \"#utility.yul\":328:346   */\n      add\n        /* \"#utility.yul\":320:346   */\n      swap1\n      pop\n        /* \"#utility.yul\":356:421   */\n      tag_30\n        /* \"#utility.yul\":418:419   */\n      0x00\n        /* \"#utility.yul\":407:416   */\n      dup4\n        /* \"#utility.yul\":403:420   */\n      add\n        /* \"#utility.yul\":394:400   */\n      dup5\n        /* \"#utility.yul\":356:421   */\n      tag_18\n      jump\t// in\n    tag_30:\n        /* \"#utility.yul\":218:428   */\n      swap3\n      swap2\n      pop\n      pop\n      jump\t// out\n        /* \"#utility.yul\":515:632   */\n    tag_20:\n        /* \"#utility.yul\":624:625   */\n      0x00\n        /* \"#utility.yul\":621:622   */\n      dup1\n        /* \"#utility.yul\":614:626   */\n      revert\n        /* \"#utility.yul\":761:838   */\n    tag_22:\n        /* \"#utility.yul\":798:805   */\n      0x00\n        /* \"#utility.yul\":827:832   */\n      dup2\n        /* \"#utility.yul\":816:832   */\n      swap1\n      pop\n        /* \"#utility.yul\":761:838   */\n      swap2\n      swap1\n      pop\n      jump\t// out\n        /* \"#utility.yul\":844:966   */\n    tag_23:\n        /* \"#utility.yul\":917:941   */\n      tag_36\n        /* \"#utility.yul\":935:940   */\n      dup2\n        /* \"#utility.yul\":917:941   */\n      tag_22\n      jump\t// in\n    tag_36:\n        /* \"#utility.yul\":910:915   */\n      dup2\n        /* \"#utility.yul\":907:942   */\n      eq\n        /* \"#utility.yul\":897:960   */\n      tag_37\n      jumpi\n        /* \"#utility.yul\":956:957   */\n      0x00\n        /* \"#utility.yul\":953:954   */\n      dup1\n        /* \"#utility.yul\":946:958   */\n      revert\n        /* \"#utility.yul\":897:960   */\n    tag_37:\n        /* \"#utility.yul\":844:966   */\n      pop\n      jump\t// out\n        /* \"#utility.yul\":972:1111   */\n    tag_24:\n        /* \"#utility.yul\":1018:1023   */\n      0x00\n        /* \"#utility.yul\":1056:1062   */\n      dup2\n        /* \"#utility.yul\":1043:1063   */\n      calldataload\n        /* \"#utility.yul\":1034:1063   */\n      swap1\n      pop\n        /* \"#utility.yul\":1072:1105   */\n      tag_39\n        /* \"#utility.yul\":1099:1104   */\n      dup2\n        /* \"#utility.yul\":1072:1105   */\n      tag_23\n      jump\t// in\n    tag_39:\n        /* \"#utility.yul\":972:1111   */\n      swap3\n      swap2\n      pop\n      pop\n      jump\t// out\n        /* \"#utility.yul\":1117:1446   */\n    tag_11:\n        /* \"#utility.yul\":1176:1182   */\n      0x00\n        /* \"#utility.yul\":1225:1227   */\n      0x20\n        /* \"#utility.yul\":1213:1222   */\n      dup3\n        /* \"#utility.yul\":1204:1211   */\n      dup5\n        /* \"#utility.yul\":1200:1223   */\n      sub\n        /* \"#utility.yul\":1196:1228   */\n      slt\n        /* \"#utility.yul\":1193:1312   */\n      iszero\n      tag_41\n      jumpi\n        /* \"#utility.yul\":1231:1310   */\n      tag_42\n      tag_20\n      jump\t// in\n    tag_42:\n        /* \"#utility.yul\":1193:1312   */\n    tag_41:\n        /* \"#utility.yul\":1351:1352   */\n      0x00\n        /* \"#utility.yul\":1376:1429   */\n      tag_43\n        /* \"#utility.yul\":1421:1428   */\n      dup5\n        /* \"#utility.yul\":1412:1418   */\n      dup3\n        /* \"#utility.yul\":1401:1410   */\n      dup6\n        /* \"#utility.yul\":1397:1419   */\n      add\n        /* \"#utility.yul\":1376:1429   */\n      tag_24\n      jump\t// in\n    tag_43:\n        /* \"#utility.yul\":1366:1429   */\n      swap2\n      pop\n        /* \"#utility.yul\":1322:1439   */\n      pop\n        /* \"#utility.yul\":1117:1446   */\n      swap3\n      swap2\n      pop\n      pop\n      jump\t// out\n\n    auxdata: 0xa264697066735822122059b3fe13d886aaf50fb621f984279f05e847608061db7454ceb1d7da58f56cb464736f6c63430008130033\n}\n",
				"bytecode": {
					"linkReferences": {},
					"object": "608060405260016000806101000a81548160ff02191690831515021790555034801561002a57600080fd5b506101d88061003a6000396000f3fe608060405234801561001057600080fd5b50600436106100365760003560e01c80633fa4f2451461003b5780635f72f45014610059575b600080fd5b610043610089565b604051610050919061011f565b60405180910390f35b610073600480360381019061006e9190610175565b61009a565b604051610080919061011f565b60405180910390f35b60008054906101000a900460ff1681565b600060648211156100d45760016000806101000a81548160ff02191690831515021790555060008054906101000a900460ff1690506100ff565b60008060006101000a81548160ff02191690831515021790555060008054906101000a900460ff1690505b919050565b60008115159050919050565b61011981610104565b82525050565b60006020820190506101346000830184610110565b92915050565b600080fd5b6000819050919050565b6101528161013f565b811461015d57600080fd5b50565b60008135905061016f81610149565b92915050565b60006020828403121561018b5761018a61013a565b5b600061019984828501610160565b9150509291505056fea264697066735822122059b3fe13d886aaf50fb621f984279f05e847608061db7454ceb1d7da58f56cb464736f6c63430008130033",
					"opcodes": "PUSH1 0x80 PUSH1 0x40 MSTORE PUSH1 0x1 PUSH1 0x0 DUP1 PUSH2 0x100 EXP DUP2 SLOAD DUP2 PUSH1 0xFF MUL NOT AND SWAP1 DUP4 ISZERO ISZERO MUL OR SWAP1 SSTORE POP CALLVALUE DUP1 ISZERO PUSH2 0x2A JUMPI PUSH1 0x0 DUP1 REVERT JUMPDEST POP PUSH2 0x1D8 DUP1 PUSH2 0x3A PUSH1 0x0 CODECOPY PUSH1 0x0 RETURN INVALID PUSH1 0x80 PUSH1 0x40 MSTORE CALLVALUE DUP1 ISZERO PUSH2 0x10 JUMPI PUSH1 0x0 DUP1 REVERT JUMPDEST POP PUSH1 0x4 CALLDATASIZE LT PUSH2 0x36 JUMPI PUSH1 0x0 CALLDATALOAD PUSH1 0xE0 SHR DUP1 PUSH4 0x3FA4F245 EQ PUSH2 0x3B JUMPI DUP1 PUSH4 0x5F72F450 EQ PUSH2 0x59 JUMPI JUMPDEST PUSH1 0x0 DUP1 REVERT JUMPDEST PUSH2 0x43 PUSH2 0x89 JUMP JUMPDEST PUSH1 0x40 MLOAD PUSH2 0x50 SWAP2 SWAP1 PUSH2 0x11F JUMP JUMPDEST PUSH1 0x40 MLOAD DUP1 SWAP2 SUB SWAP1 RETURN JUMPDEST PUSH2 0x73 PUSH1 0x4 DUP1 CALLDATASIZE SUB DUP2 ADD SWAP1 PUSH2 0x6E SWAP2 SWAP1 PUSH2 0x175 JUMP JUMPDEST PUSH2 0x9A JUMP JUMPDEST PUSH1 0x40 MLOAD PUSH2 0x80 SWAP2 SWAP1 PUSH2 0x11F JUMP JUMPDEST PUSH1 0x40 MLOAD DUP1 SWAP2 SUB SWAP1 RETURN JUMPDEST PUSH1 0x0 DUP1 SLOAD SWAP1 PUSH2 0x100 EXP SWAP1 DIV PUSH1 0xFF AND DUP2 JUMP JUMPDEST PUSH1 0x0 PUSH1 0x64 DUP3 GT ISZERO PUSH2 0xD4 JUMPI PUSH1 0x1 PUSH1 0x0 DUP1 PUSH2 0x100 EXP DUP2 SLOAD DUP2 PUSH1 0xFF MUL NOT AND SWAP1 DUP4 ISZERO ISZERO MUL OR SWAP1 SSTORE POP PUSH1 0x0 DUP1 SLOAD SWAP1 PUSH2 0x100 EXP SWAP1 DIV PUSH1 0xFF AND SWAP1 POP PUSH2 0xFF JUMP JUMPDEST PUSH1 0x0 DUP1 PUSH1 0x0 PUSH2 0x100 EXP DUP2 SLOAD DUP2 PUSH1 0xFF MUL NOT AND SWAP1 DUP4 ISZERO ISZERO MUL OR SWAP1 SSTORE POP PUSH1 0x0 DUP1 SLOAD SWAP1 PUSH2 0x100 EXP SWAP1 DIV PUSH1 0xFF AND SWAP1 POP JUMPDEST SWAP2 SWAP1 POP JUMP JUMPDEST PUSH1 0x0 DUP2 ISZERO ISZERO SWAP1 POP SWAP2 SWAP1 POP JUMP JUMPDEST PUSH2 0x119 DUP2 PUSH2 0x104 JUMP JUMPDEST DUP3 MSTORE POP POP JUMP JUMPDEST PUSH1 0x0 PUSH1 0x20 DUP3 ADD SWAP1 POP PUSH2 0x134 PUSH1 0x0 DUP4 ADD DUP5 PUSH2 0x110 JUMP JUMPDEST SWAP3 SWAP2 POP POP JUMP JUMPDEST PUSH1 0x0 DUP1 REVERT JUMPDEST PUSH1 0x0 DUP2 SWAP1 POP SWAP2 SWAP1 POP JUMP JUMPDEST PUSH2 0x152 DUP2 PUSH2 0x13F JUMP JUMPDEST DUP2 EQ PUSH2 0x15D JUMPI PUSH1 0x0 DUP1 REVERT JUMPDEST POP JUMP JUMPDEST PUSH1 0x0 DUP2 CALLDATALOAD SWAP1 POP PUSH2 0x16F DUP2 PUSH2 0x149 JUMP JUMPDEST SWAP3 SWAP2 POP POP JUMP JUMPDEST PUSH1 0x0 PUSH1 0x20 DUP3 DUP5 SUB SLT ISZERO PUSH2 0x18B JUMPI PUSH2 0x18A PUSH2 0x13A JUMP JUMPDEST JUMPDEST PUSH1 0x0 PUSH2 0x199 DUP5 DUP3 DUP6 ADD PUSH2 0x160 JUMP JUMPDEST SWAP2 POP POP SWAP3 SWAP2 POP POP JUMP INVALID LOG2 PUSH5 0x6970667358 0x22 SLT KECCAK256 MSIZE 0xB3 INVALID SGT 0xD8 DUP7 0xAA CREATE2 0xF 0xB6 0x21 0xF9 DUP5 0x27 SWAP16 SDIV 0xE8 SELFBALANCE PUSH1 0x80 PUSH2 0xDB74 SLOAD 0xCE 0xB1 0xD7 0xDA PC CREATE2 PUSH13 0xB464736F6C6343000813003300 "
				},
				"gasEstimates": {
					"creation": {
						"codeDepositCost": "94400",
						"executionCost": "24408",
						"totalCost": "118808"
					},
					"external": {
						"check(uint256)": "27045",
						"value()": "2446"
					}
				},
				"methodIdentifiers": {
					"check(uint256)": "5f72f450",
					"value()": "3fa4f245"
				}
			},
			"storageLayout": {
				"storage": [
					{
						"astId": 4,
						"contract": "booldata_type.sol:local",
						"label": "value",
						"offset": 0,
						"slot": "0",
						"type": "t_bool"
					}
				],
				"types": {
					"t_bool": {
						"encoding": "inplace",
						"label": "bool",
						"numberOfBytes": "1"
					}
				}
			},
			"userdoc": {
				"kind": "user",
				"methods": {},
				"version": 1
			}
		}
	}
}