{
	"pure_vs_view.sol": {
		"local": {
			"abi": [
				{
					"inputs": [],
					"name": "age",
					"outputs": [
						{
							"internalType": "uint256",
							"name": "",
							"type": "uint256"
						}
					],
					"stateMutability": "view",
					"type": "function"
				},
				{
					"inputs": [],
					"name": "getter",
					"outputs": [
						{
							"internalType": "uint256",
							"name": "",
							"type": "uint256"
						}
					],
					"stateMutability": "view",
					"type": "function"
				},
				{
					"inputs": [],
					"name": "getter1",
					"outputs": [
						{
							"internalType": "uint256",
							"name": "",
							"type": "uint256"
						}
					],
					"stateMutability": "pure",
					"type": "function"
				}
			],
			"devdoc": {
				"kind": "dev",
				"methods": {},
				"version": 1
			},
			"evm": {
				"assembly": "    /* \"pure_vs_view.sol\":71:392  contract local... */\n  mstore(0x40, 0x80)\n    /* \"pure_vs_view.sol\":110:112  10 */\n  0x0a\n    /* \"pure_vs_view.sol\":94:112  uint public age=10 */\n  0x00\n  sstore\n    /* \"pure_vs_view.sol\":71:392  contract local... */\n  callvalue\n  dup1\n  iszero\n  tag_1\n  jumpi\n  0x00\n  dup1\n  revert\ntag_1:\n  pop\n  dataSize(sub_0)\n  dup1\n  dataOffset(sub_0)\n  0x00\n  codecopy\n  0x00\n  return\nstop\n\nsub_0: assembly {\n        /* \"pure_vs_view.sol\":71:392  contract local... */\n      mstore(0x40, 0x80)\n      callvalue\n      dup1\n      iszero\n      tag_1\n      jumpi\n      0x00\n      dup1\n      revert\n    tag_1:\n      pop\n      jumpi(tag_2, lt(calldatasize, 0x04))\n      shr(0xe0, calldataload(0x00))\n      dup1\n      0x0ec1632e\n      eq\n      tag_3\n      jumpi\n      dup1\n      0x262a9dff\n      eq\n      tag_4\n      jumpi\n      dup1\n      0x993a04b7\n      eq\n      tag_5\n      jumpi\n    tag_2:\n      0x00\n      dup1\n      revert\n        /* \"pure_vs_view.sol\":240:390  function getter1 () public pure returns(uint)... */\n    tag_3:\n      tag_6\n      tag_7\n      jump\t// in\n    tag_6:\n      mload(0x40)\n      tag_8\n      swap2\n      swap1\n      tag_9\n      jump\t// in\n    tag_8:\n      mload(0x40)\n      dup1\n      swap2\n      sub\n      swap1\n      return\n        /* \"pure_vs_view.sol\":94:112  uint public age=10 */\n    tag_4:\n      tag_10\n      tag_11\n      jump\t// in\n    tag_10:\n      mload(0x40)\n      tag_12\n      swap2\n      swap1\n      tag_9\n      jump\t// in\n    tag_12:\n      mload(0x40)\n      dup1\n      swap2\n      sub\n      swap1\n      return\n        /* \"pure_vs_view.sol\":121:233  function getter () public view returns(uint)... */\n    tag_5:\n      tag_13\n      tag_14\n      jump\t// in\n    tag_13:\n      mload(0x40)\n      tag_15\n      swap2\n      swap1\n      tag_9\n      jump\t// in\n    tag_15:\n      mload(0x40)\n      dup1\n      swap2\n      sub\n      swap1\n      return\n        /* \"pure_vs_view.sol\":240:390  function getter1 () public pure returns(uint)... */\n    tag_7:\n        /* \"pure_vs_view.sol\":280:284  uint */\n      0x00\n        /* \"pure_vs_view.sol\":307:316  uint roll */\n      dup1\n        /* \"pure_vs_view.sol\":317:320  100 */\n      0x64\n        /* \"pure_vs_view.sol\":307:320  uint roll=100 */\n      swap1\n      pop\n        /* \"pure_vs_view.sol\":339:343  roll */\n      dup1\n        /* \"pure_vs_view.sol\":332:343  return roll */\n      swap2\n      pop\n      pop\n        /* \"pure_vs_view.sol\":240:390  function getter1 () public pure returns(uint)... */\n      swap1\n      jump\t// out\n        /* \"pure_vs_view.sol\":94:112  uint public age=10 */\n    tag_11:\n      sload(0x00)\n      dup2\n      jump\t// out\n        /* \"pure_vs_view.sol\":121:233  function getter () public view returns(uint)... */\n    tag_14:\n        /* \"pure_vs_view.sol\":160:164  uint */\n      0x00\n        /* \"pure_vs_view.sol\":191:194  age */\n      dup1\n      sload\n        /* \"pure_vs_view.sol\":184:194  return age */\n      swap1\n      pop\n        /* \"pure_vs_view.sol\":121:233  function getter () public view returns(uint)... */\n      swap1\n      jump\t// out\n        /* \"#utility.yul\":7:84   */\n    tag_18:\n        /* \"#utility.yul\":44:51   */\n      0x00\n        /* \"#utility.yul\":73:78   */\n      dup2\n        /* \"#utility.yul\":62:78   */\n      swap1\n      pop\n        /* \"#utility.yul\":7:84   */\n      swap2\n      swap1\n      pop\n      jump\t// out\n        /* \"#utility.yul\":90:208   */\n    tag_19:\n        /* \"#utility.yul\":177:201   */\n      tag_23\n        /* \"#utility.yul\":195:200   */\n      dup2\n        /* \"#utility.yul\":177:201   */\n      tag_18\n      jump\t// in\n    tag_23:\n        /* \"#utility.yul\":172:175   */\n      dup3\n        /* \"#utility.yul\":165:202   */\n      mstore\n        /* \"#utility.yul\":90:208   */\n      pop\n      pop\n      jump\t// out\n        /* \"#utility.yul\":214:436   */\n    tag_9:\n        /* \"#utility.yul\":307:311   */\n      0x00\n        /* \"#utility.yul\":345:347   */\n      0x20\n        /* \"#utility.yul\":334:343   */\n      dup3\n        /* \"#utility.yul\":330:348   */\n      add\n        /* \"#utility.yul\":322:348   */\n      swap1\n      pop\n        /* \"#utility.yul\":358:429   */\n      tag_25\n        /* \"#utility.yul\":426:427   */\n      0x00\n        /* \"#utility.yul\":415:424   */\n      dup4\n        /* \"#utility.yul\":411:428   */\n      add\n        /* \"#utility.yul\":402:408   */\n      dup5\n        /* \"#utility.yul\":358:429   */\n      tag_19\n      jump\t// in\n    tag_25:\n        /* \"#utility.yul\":214:436   */\n      swap3\n      swap2\n      pop\n      pop\n      jump\t// out\n\n    auxdata: 0xa2646970667358221220c692edf976b5d64ebb1fa772561b77120651d10ff1c86d0c71cd3870db27ef2d64736f6c63430008110033\n}\n",
				"bytecode": {
					"linkReferences": {},
					"object": "6080604052600a60005534801561001557600080fd5b50610112806100256000396000f3fe6080604052348015600f57600080fd5b5060043610603c5760003560e01c80630ec1632e146041578063262a9dff14605b578063993a04b7146075575b600080fd5b6047608f565b6040516052919060c3565b60405180910390f35b6061609d565b604051606c919060c3565b60405180910390f35b607b60a3565b6040516086919060c3565b60405180910390f35b600080606490508091505090565b60005481565b60008054905090565b6000819050919050565b60bd8160ac565b82525050565b600060208201905060d6600083018460b6565b9291505056fea2646970667358221220c692edf976b5d64ebb1fa772561b77120651d10ff1c86d0c71cd3870db27ef2d64736f6c63430008110033",
					"opcodes": "PUSH1 0x80 PUSH1 0x40 MSTORE PUSH1 0xA PUSH1 0x0 SSTORE CALLVALUE DUP1 ISZERO PUSH2 0x15 JUMPI PUSH1 0x0 DUP1 REVERT JUMPDEST POP PUSH2 0x112 DUP1 PUSH2 0x25 PUSH1 0x0 CODECOPY PUSH1 0x0 RETURN INVALID PUSH1 0x80 PUSH1 0x40 MSTORE CALLVALUE DUP1 ISZERO PUSH1 0xF JUMPI PUSH1 0x0 DUP1 REVERT JUMPDEST POP PUSH1 0x4 CALLDATASIZE LT PUSH1 0x3C JUMPI PUSH1 0x0 CALLDATALOAD PUSH1 0xE0 SHR DUP1 PUSH4 0xEC1632E EQ PUSH1 0x41 JUMPI DUP1 PUSH4 0x262A9DFF EQ PUSH1 0x5B JUMPI DUP1 PUSH4 0x993A04B7 EQ PUSH1 0x75 JUMPI JUMPDEST PUSH1 0x0 DUP1 REVERT JUMPDEST PUSH1 0x47 PUSH1 0x8F JUMP JUMPDEST PUSH1 0x40 MLOAD PUSH1 0x52 SWAP2 SWAP1 PUSH1 0xC3 JUMP JUMPDEST PUSH1 0x40 MLOAD DUP1 SWAP2 SUB SWAP1 RETURN JUMPDEST PUSH1 0x61 PUSH1 0x9D JUMP JUMPDEST PUSH1 0x40 MLOAD PUSH1 0x6C SWAP2 SWAP1 PUSH1 0xC3 JUMP JUMPDEST PUSH1 0x40 MLOAD DUP1 SWAP2 SUB SWAP1 RETURN JUMPDEST PUSH1 0x7B PUSH1 0xA3 JUMP JUMPDEST PUSH1 0x40 MLOAD PUSH1 0x86 SWAP2 SWAP1 PUSH1 0xC3 JUMP JUMPDEST PUSH1 0x40 MLOAD DUP1 SWAP2 SUB SWAP1 RETURN JUMPDEST PUSH1 0x0 DUP1 PUSH1 0x64 SWAP1 POP DUP1 SWAP2 POP POP SWAP1 JUMP JUMPDEST PUSH1 0x0 SLOAD DUP2 JUMP JUMPDEST PUSH1 0x0 DUP1 SLOAD SWAP1 POP SWAP1 JUMP JUMPDEST PUSH1 0x0 DUP2 SWAP1 POP SWAP2 SWAP1 POP JUMP JUMPDEST PUSH1 0xBD DUP2 PUSH1 0xAC JUMP JUMPDEST DUP3 MSTORE POP POP JUMP JUMPDEST PUSH1 0x0 PUSH1 0x20 DUP3 ADD SWAP1 POP PUSH1 0xD6 PUSH1 0x0 DUP4 ADD DUP5 PUSH1 0xB6 JUMP JUMPDEST SWAP3 SWAP2 POP POP JUMP INVALID LOG2 PUSH5 0x6970667358 0x22 SLT KECCAK256 0xC6 SWAP3 0xED 0xF9 PUSH23 0xB5D64EBB1FA772561B77120651D10FF1C86D0C71CD3870 0xDB 0x27 0xEF 0x2D PUSH5 0x736F6C6343 STOP ADDMOD GT STOP CALLER "
				},
				"gasEstimates": {
					"creation": {
						"codeDepositCost": "54800",
						"executionCost": "22211",
						"totalCost": "77011"
					},
					"external": {
						"age()": "2429",
						"getter()": "2459",
						"getter1()": "328"
					}
				},
				"methodIdentifiers": {
					"age()": "262a9dff",
					"getter()": "993a04b7",
					"getter1()": "0ec1632e"
				}
			},
			"storageLayout": {
				"storage": [
					{
						"astId": 4,
						"contract": "pure_vs_view.sol:local",
						"label": "age",
						"offset": 0,
						"slot": "0",
						"type": "t_uint256"
					}
				],
				"types": {
					"t_uint256": {
						"encoding": "inplace",
						"label": "uint256",
						"numberOfBytes": "32"
					}
				}
			},
			"userdoc": {
				"kind": "user",
				"methods": {},
				"version": 1
			}
		}
	}
}